:1000000020C02FC02EC02DC02CC07FC02AC029C048
:1000100028C027C026C025C024C023C022C000009D
:10002000000037000000000036000000000038002B
:100030000202020202020102040810200102000072
:10004000040011241FBECFE5D2E0DEBFCDBF20E00B
:10005000A0E6B0E001C01D92AE36B207E1F79FD036
:1000600082C1CECF813031F48AB58F778ABD8AB50F
:100070008F7B07C0823039F48AB58F7D8ABD8AB5FF
:100080008F7E8ABD0895833039F480B78F7D80BF1D
:1000900080B78F7E80BF0895843031F48CB58F7D1A
:1000A0008CBD8CB58F7E8CBD08951F93CF93DF934D
:1000B000282F30E0F901E45CFF4F8491F901EA5CFC
:1000C000FF4FD491F901E05DFF4FC491CC23C9F0FB
:1000D000162F8111C7DFEC2FF0E0EE0FFF1FE65D5A
:1000E000FF4FA591B4918FB7111106C0F8949C9160
:1000F000ED2FE095E92303C0F894EC91ED2BEC9300
:100100008FBFDF91CF911F9108951F920F920FB66D
:100110000F9211242F933F938F939F93AF93BF938D
:1001200080916A0090916B00A0916C00B0916D007D
:100130003091690026E0230F2D3730F029E8230F96
:100140000396A11DB11D03C00296A11DB11D2093F0
:10015000690080936A0090936B00A0936C00B09349
:100160006D008091650090916600A0916700B0914C
:1001700068000196A11DB11D8093650090936600F3
:10018000A0936700B0936800BF91AF919F918F914A
:100190003F912F910F900FBE0F901F90189581B730
:1001A00081BF8AB582608ABD8AB581608ABD83B706
:1001B000887F836083BF789489B7826089BF80B766
:1001C000807F80BF80B7806880BF8CB580648CBD25
:1001D0008FEF8DBD80B7876080BF86B188778668D6
:1001E00086B9379AE6E3F0E02491E0E3F0E0849109
:1001F000882399F090E0880F991FFC01E25EFF4F81
:10020000A591B491FC01E65DFF4F859194918FB764
:10021000F894EC91E22BEC938FBF60E080E045DF37
:10022000CAE3D0E0FE01249104E310E0F8018491D8
:100230008823C9F090E0880F991FFC01E25EFF4F10
:10024000A591B491865D9F4FFC01459154913FB7B4
:10025000F8949C91822F809598239C93FA01908129
:10026000892380833FBF61E084E01FDF30E4E32E19
:1002700030E0F32ECC24C39480916400811118C027
:10028000F7018491FE01B490F801D490DD2009F4C7
:1002900054C08111E7DE8D2D90E0880F991F8C5D91
:1002A0009F4FFC01A591B4918C91B82209F445C0EF
:1002B00080916400882301F32FB7F89480916A003D
:1002C00090916B00A0916C00B0916D002FBF409198
:1002D0006000509161006091620070916300841B26
:1002E000950BA60BB70B80399140A105B10510F411
:1002F00061E020C02FB7F89480916A0090916B0064
:10030000A0916C00B0916D002FBF409160005091A2
:1003100061006091620070916300841B950BA60BD5
:10032000B70B81399140A105B10508F4A5CF109212
:10033000640060E080E0B9DE9FCF2FB7F894809131
:100340006A0090916B00A0916C00B0916D002FBF7E
:100350008093600090936100A0936200B09363006B
:0A036000C0926400A5CFF894FFCF0F
:00000001FF
